:020000040000fa
:080000000001040000000000f3
:020000040000fa
:100200000fd820000eff20000e0188000000000023
:100210000c000700a0a4210001002000110007002d
:10022000000020000000e000020032000000020098
:100230000000000072100200000000000040da0020
:100240000000fe004440a900201320000000e00050
:100250000300320000002000a00188004440a800f4
:100260000000060091018800800078000000eb008b
:1002700015003700e280400032a0b4009101ba00be
:10028000e280400032a0b4009102ba00e280400057
:1002900032a0b4000002eb00472bde00f507b200ed
:1002a000602ce10004003a000059eb008301e900f2
:1002b000fdff3e00040037006128e100010032002c
:1002c0000082eb00040007001101ba000200e00008
:1002d000e8ff3a00000006003159ba008301e90046
:1002e0000c0032002159ba008301e90008003200f5
:1002f0000400e00003003a00e280400032a0b400b5
:10030000f5ff370011d9ba008301e900faff3a007e
:100310008100e800e180400032a0b4000000060047
:100320000040da000000fe000de2a9008d20a900c7
:100330008d40a9008520a9008540a9000000060085
:100340008520a9008540a900e7416000c419dd00af
:100350008109200091407800f2c8b30082c060009b
:1003600083c070008000fd0098e0b7008000fd00b1
:10037000800178000307b200c419de009109200053
:100380009140780082cfb30082c0600083c07000cb
:100390008000fd0099e0b7008000fd00680160006a
:1003a0004311de0002414100d10820009140780055
:1003b0000114a10082c070008000fd008de0b70034
:1003c0008000fd000008b2004700de004200dd00b2
:1003d000d1082000914078000124a10080c0700065
:1003e000010078008de0b70000000600a210880030
:1003f0006010880071108800000006000cc2bf0069
:1004000066406000e64f500002003a009010800005
:100410000000060090108000f00fb20000000600ff
:1004200080007800000178000cc2bf0066406000c8
:10043000e64f500010003a00050037000fc2bf0021
:100440000018a300fdff3a00821088008180e800b8
:10045000110178000200e000f8ff3a0000000600f9
:100460000fc2bf000018a300fdff3a000100fb000f
:10047000801088000201e800924078000104e0004a
:10048000f7ff3a0000000600881f7800000478009b
:100490005001be004000be000400400085804800be
:1004a0000601490087814900009cbe000294be00fd
:1004b0000400e1000588e1000690e1000798e100f2
:1004c00002003100680044001008e8004f04780082
:1004d00000000600f4874700889fbe008a9fbe0088
:1004e0008c9fbe008e1f78000205be000004be0077
:1004f000d4b79f00e5b79f00f6b79f0087bf9f0066
:100500000000eb00c0b79f00b0b79f00a0b79f00ee
:1005100090b79f0080b79f000d042000bfb09700e8
:100520004fb09700000140000000e0000f003d00c8
:100530004f08de0000007100c0b79f004d000700ab
:1005400001003d00120020005000070001003d00a6
:100550001200200055000700610007006600070038
:100560000f004000c8ff0700220037004f08de00e0
:1005700000067100ccb79f003e00070001003d005f
:10058000120020004100070001003d001200200081
:1005900046000700520007000fb297009fb2970075
:1005a0002fb39700bfb39700590007000000520017
:1005b00081805a0002015b0083815b0080b79f004d
:1005c00091b79f00a2b79f00b3b79f000007eb0051
:1005d0004f0007000020e10001a8e10002b0e100a7
:1005e00003b8e100010031001e0020000e0056009b
:1005f000c0b79f004fb297000400e000070035002d
:1006000010002000010020006011b80008047000f4
:10061000898470000a0571008b8571008d06e900e0
:10062000beff3a000400e00003003d003200070076
:100630000f00400094ff07004fa897000000e00063
:1006400004003a000fb497009fb497002fb59700ad
:10065000bfb597000800be000a01be004f07780032
:100660004f06be004f05be004f04be004f01b10053
:10067000000006000180400090b79f000001eb00e1
:100680008fb097000100e00000000600020070003b
:1006900090b79f000180400080b79f000001eb00f1
:1006a000ffa897000100e0000000060002007000b3
:1006b00080b79f00018040006faa9700cf20de0026
:1006c00001007000f0af9f00040242000800be006d
:1006d0000a01be004f18de00000272000000060092
:1006e000e4af9f000804440089844c000a054d00d3
:1006f0008b854d00000006003fb29700cfb29700f7
:100700005fb39700efb3970000fe2f0000000600d4
:100710003fb09700cfb097005fb19700efb197005f
:1007200000000600881f780018002000881f78004d
:1007300068ff07008f87e9004f047800000006007b
:10074000801feb0063ff07008f87e90000000600b1
:10075000889fbe008a9fbe008c1f78000205be00e5
:100760000004be00e00f5000e08f5800e00f590079
:10077000e08f59000c003d006000b8006011b80027
:1007800008045000898458000a0559008b855900d7
:100790001c0020001f00070008003d001800070093
:1007a0000006eb00050037000006eb00190007000b
:1007b00002003d000f0007001c0020000800be00e2
:1007c0000a01be00d7ff07000203be000002be0000
:1007d0000c00e00001003200060007000400be002b
:1007e0000601be004f0678004f05be004f04be0054
:1007f000000006006000b8006011b800000037007b
:10080000040250008582580006035900878359006e
:1008100000000600e00f5200e08f5a00e00f5b007e
:10082000e08f5b0000000600889fbe008a9fbe002c
:100830008c1f78000205be000004be00e00f5000cf
:10084000e08f5800e00f5900e08f59000a003d008a
:100850006000b8006011b800080450008984580096
:100860000a0559008b8559001c002000180007005c
:1008700007003d00050037000006eb0014000700ec
:1008800003003d006000b8006011b80015000700cb
:100890000800be000a01be00a9ff07000203be0057
:1008a0000002be000c00e000030032006000b8004f
:1008b0006011b8000b0007000400be000601be0076
:1008c0004f0678004f05be004f04be000000060032
:1008d000e00f5200e08f5a00e00f5b00e08f5b00fa
:1008e00000000600040250008582580006035900eb
:1008f0008783590000000600889fbe008a9fbe00c3
:100900008c1f78000205be000004be000006eb004c
:10091000e00f5000e08f5800e00f5900e08f5900c1
:1009200007003d006000b8006011b80008045000e6
:10093000898458000a0559008b8559001c00200045
:10094000e00f5200e08f5a00e00f5b00e08f5b0089
:1009500002003d000f0007000c00a2000800be00ce
:100960000a01be00120007000203be000002be0022
:100970000c00e00001003200060007000400be0089
:100980000601be004f0678004f05be004f04be00b2
:10099000000006006000b8006011b80004025000ba
:1009a000858258000603590087835900000006001d
:1009b000889fbe008a9fbe008c9fbe000404b800c2
:1009c0000506b8008904460060854e000606b8009a
:1009d0000a054600e0854e000706b8008b05460074
:1009e000040eb800890446000a854e00e0854d00db
:1009f000050eb8000a0546008b854e00060eb800ad
:100a00008b0546000416b8000a0546008b854e008b
:100a10000516b8008b054600041eb8008b0546007d
:100a20000800be000a01be004f06be004f05be0012
:100a30004f04be00000006000001780000c2b300b1
:100a4000010037000201e8009240780080cf50009a
:100a5000fcff3200e9cf5000faff3200d0c2b300f1
:100a600080cf500003003a000201e80014c0b30038
:100a7000050037000042eb00b0c2b30080cf500049
:100a800001003a000201e8008000eb0005fd2f00a4
:100a9000040037006a08b90000804100850040006a
:100aa0000201e8009201fb0005804100e90f5000bf
:100ab000f8ff36000404e000010032008100ea0083
:100ac00001007800000006008001eb000200370002
:100ad000817178008301e800828f5100fcff3a00a9
:100ae00000000600800078003004e000feff3a00bd
:100af000010050000000e90000000600889fbe00d1
:100b00000004be000d00370009007800f5ff070063
:100b1000000178000800be00580407000000e00053
:100b200002003a0008007800090037009900fb0035
:100b30000800e80006040700000478000800e00050
:100b4000020032001804e000efff3a000000eb0062
:100b50004f04be0000000600e4874700889fbe00e7
:100b60008a9fbe008c9fbe008e1f78000005780013
:100b700001077800820578000000eb00e06b880038
:100b80000100e000010032008a0878000a047800c1
:100b9000b84478000900fb00940307000000e0005f
:100ba0000200320008057800f8ff3700d0c2b30019
:100bb00080cf540005003a00984478000a84e80089
:100bc00010c0b30090f79f00070037000041eb0012
:100bd00092f79f00b0c2b30080cf540002003a00e9
:100be000984478000a84e80000c3b30080cf540022
:100bf00017003a0008057800ba4478000b00e000be
:100c000002003200f08f550009003a0080c7b3009f
:100c100080cf54000300320080c5b30080cf540061
:100c200007003a009a4478000885e8000b0120008c
:100c30006066b8000040eb0080f79f0010003700ae
:100c40000b00e000faff3a008b002000f8ff3700ad
:100c50000b00e00003003a0008057800ab0020001c
:100c6000f3ff370008057800f1ff3700200220006d
:100c7000e06b88000205780012c0b3002400370042
:100c80000904fb00080078004e0307000000e000a4
:100c900005003200080078005c03070091ccb30027
:100ca000014440000500370001fd2f000100440011
:100cb000e90f500015003e0001c444000800fb008d
:100cc0008b0f500011003d006159b9000c00be00af
:100cd000320407000801fb00cf91de000000410054
:100ce000818049000a01e800800f5600818f5e0074
:100cf000deff3e009a4478000205780012c0b3007f
:100d000082f79f000006be00ddff37000041eb00c8
:100d10000e00e000030032000ff097000004e00036
:100d200004003a009e00780000c3b300914f100009
:100d300001003a000a0fe900e14f510003003a00b8
:100d40000086eb008086eb00050037001ff197005e
:100d50000204e0000200320060061600e0861e0079
:100d60000c00be004f0778004f06be004f05be00c6
:100d70004f04be004f00b10000000600889fbe0077
:100d80008a9fbe008c1f78008005780001057800de
:100d9000020678000000eb00e06b88000b0478008e
:100da000010037000804e800984478000900fb00bf
:100db0000e0307000000e000faff3a00d0c2b300c3
:100dc00080cf54000500320000c0e90080cf5400fd
:100dd0000200320080447800010037000804e80077
:100de0000c0178008a007800080078005aff07009c
:100df0000001be009a0f540001003a000b0d78006c
:100e00009a8f550003003a00e00f5100e08f59001f
:100e10000f003a00b0c2b30080cf540004003a0083
:100e2000e00f5100e08f590015003d000800370029
:100e3000d0c2b30080cf540011003a00000020005f
:100e400001002800800f5100818f59000a003600f0
:100e500020022000e06b8800020020000300280030
:100e60006b40400080cf540005003200f2ff2f009d
:100e7000f3ff27000200370060011100e081190034
:100e80000200be004f0678004f05be004f04be00b2
:100e9000000006000c00fa00889fbe0000047800e5
:100ea000cfb09700f0ff2700d0bf9f008004eb0079
:100eb00099bf9f0088bf9f00a8bf9f00200c200003
:100ec000b0bf9f007881570070805700080007006e
:100ed0000fb89700094878000fb897000804500031
:100ee000080078004f04be000080fa0000000600f1
:100ef000fe874700889fbe008a9fbe008c9fbe0071
:100f00008e1f7800f0b79f000107780082bf9f0016
:100f10000000eb00a0b79f009f0237008006eb00a7
:100f200050c2b30080cf5000090032000100fb0026
:100f3000ffb09700bc020700e10f400096023200ac
:100f4000afb097008100e800a1b79f009202370080
:100f50009e407800d0c2b30080cf50000c00320019
:100f600007003c006d40500080cf50000a00320066
:100f70006b40400080cf50000e003a000800370060
:100f800000c3b30080cf50000a003a0006003700cb
:100f90000d30a000050037000d00a0000300370051
:100fa0000d10a000010037000d20a0000e07e80082
:100fb000e7ff37000d18a300010032000d00a1006b
:100fc0000d38a300010032000d20a1000100fb003c
:100fd00002fd2f0002004000e90f50000e003e000d
:100fe0000002eb00c4b79f0082017800cfb29700e7
:100ff0006a28b9001e01fb00000141000301410005
:10100000c2b79f005e00fb0003004000e90f5000e4
:101010000b003e00f5ff37000006eb00ccb79f0049
:10102000a0c2b30080cf500005003a000fb897006f
:10103000c000780080bf9f00c1b79f000e07e80086
:101040000001eb00b2b79f00e0c2b3009e4f10005a
:1010500018003a000de0a0008e00e8006440500047
:10106000914f100002003200010778000c00370099
:101070000fba9700c402780084bf9f00b5b79f00e5
:101080000e87e8000b0037003fb697006a60b90092
:101090000000410003004000b0b79f000e07e800c9
:1010a0001e01fb0003fd2f0003004100e90f50006b
:1010b000f5ff3600be407800e1d79f00c0c6b30000
:1010c00080cf5000220032000f003c0069405000e9
:1010d00080cf50007700320004003c000104e000a3
:1010e000310232006b4050000f00370040c6b300a1
:1010f00080cf5000930032006540400080cf500008
:101100008b003a008f00370030c7b30080cf50000b
:101110001a00320007003c006440500080cf5000ad
:10112000110032000040e80080cf500080003a00fb
:101130000f00370050c7b30080cf5000800032004e
:101140006340400080cf500079003a00090037002a
:10115000000028000d48a30001003a000001200013
:1011600080867600d3ff37000d60a0007500370041
:101170000d50a0000d70a000720037008fb89700ce
:101180004100780081bf9f00000478000000e0006b
:1011900001003a0068d220008004eb000100370013
:1011a0008104e80089007800088044001004e00011
:1011b000fbff3a003fb197000200e000030032005d
:1011c000890f510001003100820478000002eb0019
:1011d000e4af9f00cfb29700898f52000200360023
:1011e00009805200e0af9f004368de00e106600026
:1011f0001b003a000d06780009003700ffb0970089
:101200000002200008020700e10f40000300320046
:101210002fb097000000e800a0b79f000c06e80080
:10122000efa89700810f5600f4ff3a000081eb0011
:10123000e2af9f000a003700880078003100fb0011
:1012400001047800ffb09700f7010700e10f4000ac
:10125000030032002fb297000402e800a4b79f00f9
:101260000900e90080047800e10f4000f2ff3a0035
:101270000006eb000d00e0000a003a00c60137004e
:10128000ffb0970000022000e7010700e10f4000d7
:1012900003003200afb297008502e800a5b79f00b7
:1012a0000c06e8006fa89700800f5600f4ff3a0084
:1012b000b90137008fb897004100780081bf9f00c7
:1012c000cf80de0001017800820178000205be00b7
:1012d0000004be000203be000002be004822de0081
:1012e000482edd0004027600e4d79f000d48a300dd
:1012f0000a0032000404e00008003200e14f42001e
:101300000600320071fd2f0001804700044878007c
:10131000184098002900200002003700f0d79f00f5
:101320001900200072fd2f0002844700a1ff370042
:1013300064fd2f0004844700190020009dff370042
:101340000d0cb3000d007800000cb20028003a002c
:101350000d00e00005003d008fba97004505be0076
:101360004504be0085bf9f00140037000d48a30050
:101370000b0032000fbe97004c00be008cbf9f00d8
:101380004f89de00cf91de000002be00020378002c
:10139000820378000605be000404be000700370083
:1013a0008fb897004100780081bf9f00000478004b
:1013b000cfc4de00090578008a057800e00f5400ec
:1013c000e08f5c00e00f5d00e08f5d001f003d00de
:1013d0003d00b3006000b8006011b8000804500080
:1013e000898458000a0559008b8559001700370079
:1013f0000d00e00005003d000fb997004205be005a
:101400004204be0082bf9f00100037000d48a300b9
:10141000070032000fba97004400be0084bf9f004f
:101420006011b8000205be000004be0007003700ce
:101430008fba97004500780085bf9f0000047800b0
:10144000090020000a0020000b0020003fb6970092
:101450000c00e00007003a00e00f5400e08f5c0051
:10146000e00f5d00e08f5d0002003a0010002000f8
:10147000b0b79f008d007800010cb200e1b79f006b
:1014800000042000808f50003000320003003c0038
:101490000100e00008003200400037000008200092
:1014a0006fb19700800f510014003200000c200033
:1014b000800f510039003a0014c0b30065c8200005
:1014c0000b0037000400fb004300dd000500400076
:1014d0005001be004000be000040e10001c8e10034
:1014e00002d0e10003d8e1002b0039000442e800fb
:1014f000f44f5200f3ff3a002700370000012000ac
:10150000010020006011b80014c0b3000040e100e9
:1015100001c8e10002d0e10003d8e1001e0039005b
:10152000450020000000d0008180d2000281d2005e
:101530008381d2008502e900faff3a000442e80004
:10154000f04f5200f1ff3a001300370080002000f6
:10155000010020006011b80014c0b3000040e10099
:1015600001c8e10002d0e10003d8e1000a0039001f
:101570003c0020000000d0008180d2000281d20017
:101580008381d2000c06e900faff3a000442e80029
:10159000f54f5200f1ff3a00e4d79f00efd09700db
:1015a0000100fb003fb19700820f500002003d0098
:1015b000e2d79f00040037003fb29700800f52002f
:1015c00001003d00b0b79f00cfb297000500e000da
:1015d0000400320063806600020032008502e900e8
:1015e000c5b79f000de8a3000b0032004fb697006f
:1015f0003fb09700800f560003003c008000eb00d6
:10160000c1b79f00040037004fb197003fb2970069
:1016100004015100c2b79f00efd297000500fb0004
:101620000006eb00dcaf9f00cfb09700808f50002a
:101630000200340000805000d0af9f000d28a300ae
:1016400037003200e18066000d18a3000c00320064
:10165000d00220000100e00001003a000080e90013
:10166000ffb09700f0000700e10f40000e003200cd
:101670002fb197000201e800a2b79f000a003700cf
:101680000100e00008003200ffb0970000022000d7
:10169000e5000700e10f4000030032002fb2970081
:1016a0000402e800a4b79f00dfaa97000500e0004d
:1016b0000f0032000006eb00ffb09700000320008f
:1016c000d9000700e10f4000030032002fb097005f
:1016d0000000e800a0b79f000c06e800dfa8970014
:1016e000810f5600f4ff3a000001eb00d2af9f00db
:1016f0003fb29700c320dd00e0c72000808040009b
:1017000091b79f004220dd006400500080b79f0029
:101710006320b900f0af9f006306500084003700db
:10172000dfaa97000500e000110032006880660023
:101730000f003a0000067800ffb09700000220007a
:10174000b9000700e10f4000030032002fb09700fe
:101750000000e800a0b79f000c06e800dfa8970093
:10176000810f5600f4ff3a000001eb00d2af9f005a
:10177000e18066000d18a3000c003200d0022000aa
:101780000100e00001003a000080e900ffb097008e
:10179000a5000700e10f4000d5ff32002fb29700ef
:1017a0000402e800a4b79f00d1ff37000100e00069
:1017b000cfff3200ffb09700000220009a00070020
:1017c000e10f4000caff3200afb297008502e80087
:1017d000a5b79f00c6ff370000042000efb09700b8
:1017e000808f50003100320003003c000100e00017
:1017f000080032003e003700000820006fb197005b
:10180000800f510011003200000c2000800f5100a9
:1018100037003a001fb097003002be002003be0020
:101820000800be000a01be00befb0700a4002000a5
:10183000050020006033b800c1fb070004c3b300fb
:1018400004424000e4d79f0029003700d5d2200091
:10185000d5b79f000d58a30002003a00e0d3200046
:10186000d0b79f0014002000050020006033b800ae
:101870008fb097008100e900050033000402d0001a
:101880008582d2000683d2008783d200f9ff370019
:101890000800be000a01be00a2fb07006f00600046
:1018a0005fb19700624078001000370014002000fc
:1018b000050020006033b8000c0078000000e9004b
:1018c000050033000402d0008582d2000683d200d6
:1018d0008783d200f9ff37000800be000a01be006e
:1018e00090fb0700674060000043b000e0d79f0016
:1018f000efd097000100fb00ffb097004a000700ff
:10190000e10f4000030032002fb197000201e80010
:10191000a2b79f001fb297006802520094b79f00c1
:101920008fb29700e482520085b79f00630656008d
:10193000d0ff2f003fb197000090b9007faa970019
:101940000000420063005000800f5600a2ff3a00e2
:101950000d38a30010003200dfaa97000500e00058
:101960000d0034000006eb00ffb0970000022000dd
:101970002d000700e10f4000030032002fb0970058
:101980000000e800a0b79f000c06e800dfa8970061
:10199000810f5600f4ff3a00be407800e1d79f0067
:1019a0000104e0005dfd3a002fb097004f0778007a
:1019b0004f06be004f05be004f04be00ef01b10050
:1019c000000006001004b100070035009001b100ce
:1019d000040034007000b100030035009001b10034
:1019e00001003c0010000500000005006900e10056
:1019f000040035006d00e100030034000002b10076
:101a00000100320000000500100005008000780091
:101a10001106b100030035009101b10001003c0046
:101a20000050a10000000600889fbe000001780061
:101a300001047800b10090000118a30040003200ba
:101a40000198a30003003a00180090000000e00095
:101a50003b003a000190a000310498008204780015
:101a6000f90fb200180090000000e00002003a00f8
:101a700028009000000c7800ea8f540006003a001d
:101a8000380090000078a30003003a008800780036
:101a9000d0002000e4ff0700180290006121b90087
:101aa00058009000e8009000800f5100818f59008d
:101ab0000b0032000400e8001004980018007800c1
:101ac00009587800000c780011c0b300a0d720009e
:101ad00001487800ea8f54000600320019003700f0
:101ae0008800780009407800210007008004780011
:101af00014003700380090000088a3001100320065
:101b000018019000a8009000480090006c000700a9
:101b100098009000810f50000400320038009000bf
:101b20000003b300300498008084eb000000eb0059
:101b30001004980028009000000c78000100370085
:101b40008084eb00090078004f04be00000006000e
:101b500010417800814f5100040032000000e8007d
:101b60000204e000faff3a000000eb00000006006b
:101b70000200fa00889fbe00a0ff9f0001047800c9
:101b8000b1009000810478000904b2000200320024
:101b90000000fb00360037000118a30005003a00e2
:101ba0000103b30031049800190498000080eb0091
:101bb0002f003700580090000000e00006003a00b7
:101bc0004800900012002000e68057003c0007000b
:101bd0001904980024003700280090000000e0005d
:101be00008003a0060d7200020049800000c78001c
:101bf0002000200050049800100498000130a0003c
:101c00003104980018019000a8009000480090004e
:101c10002b00070028009000000c78000080eb00eb
:101c20001004980018007800aff897000158780069
:101c3000000c78002ff89700ea4f50000a003a0095
:101c4000380090000088a3000700320018019000bf
:101c5000a80090004800900019000700190498009f
:101c6000a8009000010c7800aff897000100fb007d
:101c70004f04be000080fa000000060081017800d9
:101c80000002eb000b003700e44078000104e000a4
:101c9000030032000402e80093cf50000400320039
:101ca0008180fb001380fb000080500000000600d4
:101cb0008301e800820f5200f3ff3a0000000500a4
:101cc0000a00fa0080017800e20f500028003e0070
:101cd000f06b8000e10f500008003200000020008f
:101ce0000000e00005003200040020000500200094
:101cf000060020008001780004003700c420200086
:101d0000e5202000062120004321200014409000ff
:101d10000004e000040035008009eb00144090004e
:101d20000074a00010429800154090000028a30005
:101d300003003a00154090000024a0009042980053
:101d40008001eb0007003700154090000008a30059
:101d5000fdff320063c078000000fb00000b78003c
:101d60008301e800828f5100f7ff3a000800370036
:101d700030002000b0bf9f00c3bf9f00d1bf9f00b5
:101d8000e2bf9f006a80570000c0da006fb9970079
:101d9000020078000080fa0000000600020ab90084
:101da000001bb9000200b80081004200810043001e
:041db0000000060029
:020000040000fa
:0200000401f009
:04000000e5bf000058
:020000040000fa
:0200000401f009
:04000400ff7f00007a
:020000040000fa
:0200000401f009
:040008007fff000076
:020000040000fa
:1000080090010000900100009001000090010000a4
:100018009001000090010000900100009001000094
:100028009001000090010000900100009001000084
:100038009001000090010000900100009001000074
:1000480090010000c4100000900100009001000021
:100058009001000090010000900100009001000054
:100068009001000090010000900100009001000044
:100078009001000090010000900100009001000034
:100088009001000090010000900100009001000024
:100098009001000090010000900100009001000014
:1000a8009001000090010000900100009001000004
:1000b80090010000900100009001000090010000f4
:1000c80090010000900100009001000090010000e4
:1000d80090010000900100009001000090010000d4
:1000e80090010000900100009001000090010000c4
:0800f8009001000090010000de
:020000040000fa
:1001080090010000900100009001000090010000a3
:100118009001000090010000900100009001000093
:100128009001000090010000900100009001000083
:100138009001000090010000900100009001000073
:1001480090010000c4100000900100009001000020
:100158009001000090010000900100009001000053
:100168009001000090010000900100009001000043
:100178009001000090010000900100009001000033
:100188009001000090010000900100009001000023
:100198009001000090010000900100009001000013
:1001a8009001000090010000900100009001000003
:1001b80090010000900100009001000090010000f3
:1001c80090010000900100009001000090010000e3
:1001d80090010000900100009001000090010000d3
:1001e80090010000900100009001000090010000c3
:0801f8009001000090010000dd
:020000040000fa
:101db400534500005400000052530000540000003a
:101dc400525500004e000000534800004f570000d9
:101dd40000430000484d00004f440000004800004c
:101de400444500004c4100005900000054450000e7
:101df40053540000313200000054000045530000e9
:101e04005432000034000000414c00004c4f0000ec
:101e14004e00000045520000524f0000520a0000dc
:101e24000d0000004f76000065720000206c000079
:101e3400656e000067740000682100000a0d000050
:101e440000520000554e00004e4900004e4700006d
:101e54000a0d000000000000000000000000000067
:101e6400000000000000000000000000000000006e
:101e74000000000000000000000000000048000016
:101e84006967000068200000446500006c61000080
:101e9400792000003a200000256400000a0d0000ab
:101ea40000530000617600006520000065650000b5
:101eb400707200006f6d00000a0d00000000000049
:101ec400000000000000000000000000000000000e
:101ed40000000000000000000000000000000000fe
:101ee4000000000000450000727200006f720000e4
:101ef4002064000069670000697400000a0d000096
:101f0400000a00000d0000002530000031640000cc
:101f1400093a00002025000075090000255800003a
:101f240009250000750a00000d0000004869000042
:101f340067680000446500006c61000079200000bf
:101f44003a200000256400000a0d0000556e0000d0
:101f5400697400004d6f000064650000203a0000c1
:101f640020250000640a00000d000000444f00001a
:101f74004e4500000a0d00000000000054650000fa
:101f8400737400002076000065720000736900001d
:101f94006f6e00003a200000563000002e30000022
:101fa4002c20000044610000746500003a20000009
:101fb400313800002e300000342e0000313600008d
:101fc4000d0a0000004d000061630000726f000004
:101fd400676500006e200000313600004368000091
:101fe4006e6e0000656c000020560000616c0000fd
:101ff40076650000204300006f6e000074720000dc
:102004006f6c00006c650000722e0000200d000053
:042014000a000000be
:020000040000fa
:102018000000fa00910920009140780080cfb300b9
:1020280000c060005040b30099e0b700810920006b
:102038009140780000c7b30000c0700098e0b70076
:102048005109200091407800f0c8b30000c060003a
:1020580001c6b3000140700095e0b7000080fa00a7
:10206800000006000000fa00adf80700c0f42f00d9
:10207800b1f80700d2042000d175270000f82f001e
:10208800d8f807000d42a8000080fa0000000600fa
:102098000000fa000080eb00401588000000eb000b
:1020a800301688000000eb00401688000000eb00a6
:1020b800901688000000eb00a01688000000eb00d6
:1020c800c01688000000eb00d0168800de02a900c8
:1020d800de22a9000080fa00000006000200fa00d3
:1020e80000f029004102200095050700ddff0700e8
:1020f80000f029004102200091050700e4ff0700d5
:1021080000f02900410220008d050700c0ff0700ec
:1021180000f0290041022000890507007305070027
:1021280000e0230091042000850507000000370027
:1021380000dc2500010020008105070020648000e4
:10214800000f78001e007800e30f500004003200f2
:102158001e007800e40f500005003200f4ff37003d
:10216800c20207000000eb0020648800f0ff37007f
:102178004c0207000000eb0020648800ecff3700e9
:102188003600f800809fbe00829fbe00849fbe007c
:10219800869fbe003400f80000002000a0018800df
:1021a8001400fa008520a9008d20a9002064800071
:1021b800e30f500003003a0020648000e40f500051
:1021c800a80032008bf807002057980001608000b3
:1021d80000802000008040002e51900002487800c6
:1021e8000100e800006088002e509000ed4f50007c
:1021f8008f003a00a1ed2800008020003dfa07007a
:10220800000f9800e1ed28000080200039fa07004f
:102218007007980021ee28000080200035fa07009a
:102228006007980061ee28000080200031fa07005e
:1022380050079800b1ee2800008020002dfa070012
:102248004007980011ef28000080200029fa0700b5
:102258003007980081ef28000080200025fa070049
:1022680020079800f1ef28000080200021fa0700dd
:102278001007980061f02800008020001dfa070070
:10228800000f78000e0890000000e0000e003200f9
:1022980020002000206488000e089000ce0007006f
:1022a800e10f400003003a00c0f028001e050700b7
:1022b800020037000e0890001b0507000000eb0025
:1022c80020648800530037007e0090000000e00082
:1022d80008003200100020002064880090010700e8
:1022e8007e009000100507000000eb0020648800c5
:1022f800480037006e0090000000e0000500320042
:1023080030002000206488006e0090000605070059
:10231800400037005e0090000000e000030032003b
:1023280040002000206488003a0037004e009000ea
:102338000000e000090032005000200020648800fe
:102348004e009000520007004e009000f60407006f
:102358000000eb00206488002e0037003e0090004b
:102368000000e000090032006000200020648800be
:102378003e009000610007007e009000ea0407001c
:102388000000eb0020648800220037001e00900047
:102398000000e00007003200f0ff2f0001002000dd
:1023a8009c020700f0ff2f000100200066030700d1
:1023b800180037002e0090000000e00006003200f0
:1023c8000000eb0093020700f0ff2f00010020003f
:1023d8005d0307000f0037001e00e000090032000f
:1023e800f0ff2f00010020008a020700106480001f
:1023f80065020700f0ff2f000100200052030700cc
:10240800040037000000eb002064880000802000f2
:10241800c50407000000eb00006088000080200071
:10242800024020008000eb00a5f907000f003700ec
:1024380001608000f03f2000808f50000b003600c4
:1024480040f12800b80407000000eb000060880095
:1024580000802000024020008000eb0098f907006f
:102468000200370030f22800af0407008d20a800d2
:102478000080fa003400f9004f03be004f02be008e
:102488004f01be004f00be003600f90000400600b4
:102498000200fa00000f78009e0078006680400075
:1024a80090407800d0c6b30080cf500006003a00b4
:1024b8000000eb0000648800900120001064880090
:1024c800170107000b0037009e0078006680400067
:1024d8009040780050c7b30080cf500005003a0004
:1024e8001000200000648800800c20001064880020
:1024f8000b0107000080fa00000006007e00fa00c9
:10250800603f9800800620000e004000d1f22800ad
:1025180013000900315878004001b1007000200014
:10252800100798000000eb00000f78000e0037003d
:102538001e0178001e009000800078006e38900020
:102548000080400090407800800620000e00400087
:1025580000004100014878001e0fe8001e009000ae
:102568000000e800100798001e0090008000780026
:102578006e3890000080400010407800ed4f500009
:10258800ebff3a001e00e000100034008006200037
:102598000e00400026f907001064880010648000cf
:1025a800e4004700801f780010f42800801f78009e
:1025b8000100780035fa0700e487570064004700f7
:1025c8005904070030f52800570407000000eb0005
:1025d8000080fa00000006002800fa00881f780032
:1025e800101798006e00470011f628001300090024
:1025f800315878004001b100400020006007980081
:102608000000eb00500798000000eb00400798001e
:102618000080eb00300798000000eb0020079800ce
:102628000000eb00100798000000eb00000f780096
:102638007a0037006e009000800078001e1090002d
:10264800008040009040780000c2b30080cf500066
:1026580063003a004e009000301798004e0090003a
:102668000000e80040079800be1090000100e0005c
:10267800040032003e109000e10f50003600320096
:10268800440037006e00470014f90700200798003f
:102698002e0090000000e0003e0034000000eb0037
:1026a80010079800110037009e0090006e00470048
:1026b80000804000104078008000fb0000fd2f00e3
:1026c80000804000e90f50000500360050f7280050
:1026d8001504070010002000000f780007003700dd
:1026e8001e0090000000e800100798009e0090006f
:1026f8002e009000808f5000ebff35001e00e00098
:1027080024003a006e004700c9f807003007980017
:102718003e0090000000e00003003d000000eb00d8
:1027280030079800050037003e009000f30f500076
:102738000200340030012000300798003e0090006d
:102748008000400040c5200080804000100020002c
:10275800800878000f0037003e009000e10f40002d
:102768000c0032001e00e0000a003a003e0490000f
:102778006e0047000001eb008000eb007df90700c8
:10278800000178008800440040c02000008040001c
:10279800020878000000eb00500798006e00470020
:1027a800000178006000b8000089be0064014100a3
:1027b8006000b8000089be00640141006000b800f4
:1027c8000089be00640141006000b8000089be00b5
:1027d800640141006000b8000089be000c003700a9
:1027e8005e0190006e009000800078001e1090003e
:1027f80000804000904078006e00470000004100d3
:10280800014878005e0090000000e800500798003a
:102818006e0090000000e800600798006e009000cd
:10282800800078001e109000008040001040780062
:10283800ed4f50007fff3a005e0090000000e0007e
:10284800120032004e009000e20f50000f003a00d4
:102858003e009000e10f4000080032003e04900066
:102868006e00470072f807000001780088004400f5
:10287800c0c220000080400002087800bf000700a6
:10288800e10f4000040032001d0037008080eb009b
:10289800211798001e0037003e009000e10f40000d
:1028a800170032003e0090008000400040c5200024
:1028b800808040000000eb00800878003e00900017
:1028c8008000400040c02000808040000000eb00f5
:1028d800800878003e00900080004000c0c22000c0
:1028e800808040000000eb00800878000000eb00ca
:1028f800f06388000080eb00201798000400370080
:102908000000eb00f06388008000eb0021179800be
:102918002e1090004f0478000080fa000000060096
:102928000000fa0040c020006011b8000288be0014
:10293800640040006011b8000288be0064004000d6
:102948006011b8000288be00640040006011b80041
:102958000288be00640040006011b8000288be0012
:10296800640040006011b8000288be0064004000a6
:102978006011b8000288be00640040006011b80011
:102988000288be00640040006011b8000288be00e2
:10299800640040006011b8000288be00c0c2200078
:1029a8006011b8000288be00640040006011b800e1
:1029b8000288be00640040006011b8000288be00b2
:1029c800640040006011b8000288be006400400046
:1029d8006011b8000288be00640040006011b800b1
:1029e8000288be00640040006011b8000288be0082
:1029f800640040006011b8000288be006400400016
:102a08006011b8000288be00640040006011b80080
:102a18000288be0040c520006011b8000288be00d0
:102a2800640040006011b8000288be0064004000e5
:102a38006011b8000288be00640040006011b80050
:102a48000288be00640040006011b8000288be0021
:102a5800640040006011b8000288be0064004000b5
:102a68006011b8000288be00640040006011b80020
:102a78000288be00640040006011b8000288be00f1
:102a8800640040006011b8000288be000000eb003e
:102a9800e00007000000eb00ab0107000080fa002f
:102aa800000006006600fa000000eb00000f780046
:102ab80030f828001c0307000000eb00000f780026
:102ac8001d0037001e00780080004000c0c22000b2
:102ad80000804000900178001e00780080004000cf
:102ae80040c0200000804000100178001e007800df
:102af8008000400040c520000080400010007800a1
:102b08008e80e800831f7800821f7800801f78007d
:102b18001e007800801f780060f82800801f780069
:102b280001007800d9f80700ea8757000e80e8000e
:102b3800fd0207001e0fe800300120009e0f100064
:102b4800e0ff340000648000116480000e81e8001a
:102b5800801f7800811f780080f92800801f780086
:102b680002007800c9f80700e68757000e80e800e1
:102b7800ed0207000080fa00000006000400fa00d9
:102b88000000eb00000f7800190037001e007800e5
:102b98008000400040c52000008040001000780000
:102ba800e10f500011003a001e007800800040003c
:102bb800c0c2200000804000100178001e0078008c
:102bc8008000400040c020000080400010007800d5
:102bd800820078000e000700e10f400003003a0071
:102be8000080eb0010079800060037001e0fe80071
:102bf800300120009e0f1000e4ff34000000eb00bd
:102c0800100798001e0090000080fa0000000600df
:102c18000800fa001007980021079800f063800068
:102c28008080ea001e009000008f60001e00e00017
:102c380007003200116480002e009000810f5000c0
:102c480003003e000080eb003007980004003700c6
:102c58001e009000f06388000000eb003007980029
:102c68003e0090000080fa00000006000200fa0012
:102c78000000eb00000f7800140037001e007800f9
:102c88008000400040c5200000804000100078000f
:102c9800e10f50000c003a001e0078008000400050
:102ca800c0c2200000804000100178001e0078009b
:102cb8008000400040c020000080400010007800e4
:102cc800820078000f0007001e0fe8003001200086
:102cd8009e0f1000e9ff34000000eb004d000700d4
:102ce8000000eb00180107000000eb00e06388001b
:102cf80080fb28008c0207000000eb000080fa002f
:102d0800000006000600fa00100798002107980046
:102d1800e06380008080ea001e009000008f600061
:102d28001e0078003b0007001e0090000601070007
:102d38001e00e0000d003200106480001200070041
:102d48000000eb0033000700116480002e009000a3
:102d5800810f50000700390010648000ae00900019
:102d68000080500008000700020037002e00900085
:102d7800050007001e009000e06388000000eb00db
:102d88000080fa00000006000200fa00000f780038
:102d9800006480000000e0000e003a001e00780089
:102da800010020000200200003002000046023002e
:102db800e51620006033b800cdf60700843e2000f9
:102dc800050020006033b80054f607005c020700d5
:102dd8000d0037001e0078000100200002002000ce
:102de8000300200004602300e51620006033b800cb
:102df800bff6070004242400f50020006033b80063
:102e080046f607004e0207000000eb000080fa00bb
:102e1800000006000400fa00100798001e00900049
:102e2800000f78001e00780061406000614060007b
:102e380061406000614060004301dd00612d2000b9
:102e48009140780070cfb30000c06000024070006d
:102e5800d6e2b7001e0078000000d1006140600093
:102e68006140600061406000614060004501dd0034
:102e7800612d200091407800f0cdb30000c06000c3
:102e880002407000d6e2b7001e0078004200de0063
:102e9800614060006140600061406000c700dd0083
:102ea800d6c2bf000074a10001407000d6e2b7008e
:102eb8001e0078004300de00614060006140600051
:102ec800614060006140600000414000212e200008
:102ed80091407800d0cfb30000c06000024070007d
:102ee800e2e2b7001e0078004400de0061406000a6
:102ef8006140600061406000614060000041400046
:102f0800c12d200091407800d0cfb30000c06000f0
:102f180002407000dce2b7001e0078004500de00c9
:102f28006140600061406000614060006140600095
:102f38004301dd00c12d20009140780070cfb3001f
:102f480000c0600002407000dce2b7001e0078009c
:102f58004600de0061406000614060006140600042
:102f6800614060004501dd00c12d200091407800de
:102f7800f0cdb30000c0600002407000dce2b70092
:102f88001e0078004700de0061406000614060007c
:102f980061406000c700dd00dcc2bf000074a10012
:102fa80001407000dce2b7001e0078004800de0037
:102fb8006140600061406000614060006140600005
:102fc8004201dd00a12c200091407800b0cfb30071
:102fd80000c0600002407000cae2b7001e0078001e
:102fe8004900de00614060006140600061406000af
:102ff80061416000a12c200091407800e0cfb3002f
:1030080000c0600002407000cae2b7001e007800ed
:103018004a00de006140600061406000614060007d
:1030280061416000b12c200091407800e0cfb300ee
:1030380000c0600002407000cbe2b7001e007800bc
:103048004b00de006140600061406000614060004c
:10305800614060004201dd00b12c20009140780001
:10306800b0cfb30000c0600002407000cbe2b700f0
:103078001e0078004c00de00614060006140600086
:1030880061406000614060004401dd00b12c200017
:1030980091407800f0ceb30000c06000024070009c
:1030a800cbe2b7001e0078004d00de0061406000f2
:1030b8006140600061406000614060004601dd00e1
:1030c800b12c200091407800f0cbb30000c0600024
:1030d80002407000cbe2b7001e0078004e00de0010
:1030e80061406000614060006140600061416000d3
:1030f800712d200091407800e0cfb30000c060003f
:1031080002407000d7e2b7001e0078004f00de00d2
:1031180061406000614060006140600061406000a3
:103128004201dd00712d200091407800b0cfb3003e
:1031380000c0600002407000d7e2b7000000eb005a
:103148000080fa00000006000400fa00100798004a
:103158001e009000000f78001e007800614060009b
:103168006140600061406000614060004201dd0034
:10317800612d200091407800b0cfb30000c06000fe
:1031880002407000d6e2b7001e0078000000d100af
:103198006140600061406000614060006140600023
:1031a8004401dd00612d200091407800f0ceb3008d
:1031b80000c0600002407000d6e2b7001e00780030
:1031c8004200de00614060006140600061406000d4
:1031d800614060004601dd00612d200091407800cb
:1031e800f0cbb30000c0600002407000d6e2b70028
:1031f8001e0078004300de0061406000614060000e
:103208006140600061416000212e200091407800fb
:10321800e0cfb30000c0600002407000e2e2b700f7
:103228001e0078004400de006140600061406000dc
:103238006140600061416000c12d2000914078002c
:10324800e0cfb30000c0600002407000dce2b700cd
:103258001e0078004500de006140600061406000ab
:1032680061406000614060004201dd00c12d200026
:1032780091407800b0cfb30000c0600002407000f9
:10328800dce2b7001e0078004600de006140600006
:103298006140600061406000614060004401dd0001
:1032a800c12d200091407800f0ceb30000c060002e
:1032b80002407000dce2b7001e0078004700de0024
:1032c80061406000614060006140600061406000f2
:1032d8004601dd00c12d200091407800f0cbb300fd
:1032e80000c0600002407000dce2b7001e007800f9
:1032f8004800de006140600061406000614060009d
:10330800614060004301dd00a12c2000914078005d
:1033180070cfb30000c0600002407000cae2b7007e
:103328001e0078004900de006140600061406000d6
:10333800614060006140600000414000a12c200015
:1033480091407800d0cfb30000c060000240700008
:10335800cae2b7001e0078004a00de006140600043
:1033680061406000614060006140600000414000d1
:10337800b12c200091407800d0cfb30000c060008d
:1033880002407000cbe2b7001e0078004b00de0060
:103398006140600061406000614060006140600021
:1033a8004301dd00b12c20009140780070cfb300bc
:1033b80000c0600002407000cbe2b7001e00780039
:1033c8004c00de00614060006140600061406000c8
:1033d800614060004501dd00b12c2000914078007b
:1033e800f0cdb30000c0600002407000cbe2b7002f
:1033f8001e0078004d00de00614060006140600002
:1034080061406000c700dd00cbc2bf000074a100ae
:1034180001407000cbe2b7001e0078004e00de00cd
:103428006140600061406000614060006140600090
:1034380000414000712d200091407800d0cfb300aa
:1034480000c0600002407000d7e2b7001e0078009c
:103458004f00de0061406000614060006140600034
:10346800614060004301dd00712d2000914078002b
:1034780070cfb30000c0600002407000d7e2b70010
:0c3488000000eb000080fa0000000600cd
:020000040000fa
:10349400000c000086000000020000000000000094
:1034a4000000000000000000000000000000000018
:1034b4000000000000000000000000000000000008
:1034c40000000000000000000000000000000000f8
:1034d40000000000000000000000000000000000e8
:1034e40000000000000000000000000000000000d8
:1034f40000000000000000000000000000000000c8
:1035040000000000000000000000000000000000b7
:1035140000000000000000000000000000000000a7
:103524000000000000000000000000000000000097
:103534000000000000000000000000000000000087
:10354400000000000000000000190000000000005e
:10355400000800000004000000000000860c0000c9
:10356400a0000000020000000100000000000000b4
:1035740000000a00000000000000000000640000d9
:103584000000000000000000e8030000000000004c
:1035940000001000270000000000000000a08600ca
:1035a400010000000000000040420f000000000085
:1035b4000000800096980000000000000000e10078
:1035c400f50500000000000000ca9a003b0000005e
:1035d40000000000e40b5400020000000000e800ba
:1035e40076481700000000000010a500d4e8000091
:1035f40000000000a0724e00180900000000400006
:103604007a10f3005a0000000080c600a47e8d00ea
:103614000300000000c16f00f286230000000000d8
:103624008a5d78004563010000006400a7b3b6001a
:10363400e00d000000e889000423c7008a000000b0
:10364400260d00002a00000002000000286e75000c
:103654006c6c2900003031003233340035363700c9
:1036640038394100424344004546000030313200bd
:1036740033343500363738003961620063646500dd
:10368400660000007c0d0000020000000000000045
:10369400500d00002600000002000000520d7800ca
:1036a4000d000000780d0900000000000200760003
:1036b4000d000000760d060002010000000000006d
:1036c40000000000000006000202000000000000ec
:1036d400760d000006000000000000007e0d0000d2
:1036e40002000000020000000100000000000000d1
:020000040000fa
:1036f4006400fa0000fc280024000900305f780010
:103704005e02b1000e0078000800070050fe280099
:1037140026000900305f78007e02b1000e007800b8
:10372400020007000080fa00000006000200fa0010
:10373400000f78001e00780038f307000080fa00bc
:04374400000006007b
:020000040000fa
:10374800f03fb1000180b10006003500ee0309002a
:1037580000000000403fb1000180b100fbff3d00c8
:103768001000b000203fb0000200350000800900c2
:08377800000000000000060043
:00000001FF
